:100000000C948A100C94B2100C94B2100C94B21090
:100010000C94B2100C94B2100C94B2100C94B21058
:100020000C94B2100C94B2100C94B2100C941416E0
:100030000C94B2100C94B9180C94EB180C94B210E8
:100040000C94B2100C94B2100C94B2100C94FC14DA
:100050000C94B210494F533A205A383020636C6FD9
:10006000636B2073657420617420000D0A0A5A388E
:10007000302D4D424332202D2043413830204D4F0A
:100080004E49544F52206C6F616465720D0A0091A5
:100090000000000000C35601EFC5CDC6FFF54F18A4
:1000A0002BEFC50E00060818294FEF79E5D5C30DD3
:1000B00001EF7DCD1B007C1820E5D5210600391805
:1000C00025F3C3C9FF795050FFC3CFFFCDE101F144
:1000D000C1C9CDAC0110FBC1C9E52AC1FF3434CD83
:1000E0001B003535E1C95E23561A13722B732AC1E2
:1000F000FF77D1E1C985C9F5E5D5C521E8FFAFBED8
:1001000028013523BE280335D3EC23353AB4FFB795
:100110002841231128030605EB1A3C27BEEB2032A9
:10012000AF77132310F2352002360723237EFE0A11
:100130003802D6063D835F1A572B7E3C27BA381209
:100140003E0177237E3C27FE1338073E0177237E4E
:100150003C277721F5FF7EC620772323E6E0473E44
:10016000FFD3F1DBF2E61FB04FD3F2780707078524
:100170006F7E2FD3F179F60FE6FED3F2DBF00FE6B8
:100180003FFE3E79D3F2CA2F05C1CDCCFFD1E1F1BC
:10019000ED45FFFFFFFFFFFFFFFFFFFFFFFF5F2AB0
:1001A000C1FF7E57E60FC610777BE60F4FCDE1010A
:1001B0007B0F0F0F0FE60F4F34CDE101727BD1E1C2
:1001C000C9E5C52E042DFA6C017D07D3F3DBF00FD2
:1001D000E63F677D073CD3F37CFE3F28E87D0F0FA9
:1001E000B4C1E11809FFFF3E90D3F3C34102E5C556
:1001F0002100030618BE3728042310F9B77DC1E19A
:10020000C9CD130240D1E1E519CD200044E1B7ED9D
:1002100052CD200040E521E8FF36147EB720FCCD0A
:10022000C3FF38F536147EB720FCCDC3FF30F5236D
:100230003632E1FE11C8FE1237C83FC9EFE5C52AC4
:10024000C1FF4E790F0F0F0FE60F47283579E60FE4
:1002500080FE09302D856F0528072B7E23772B180C
:10026000F6C171E1C9EF7EFEFFC84FCDAC01231886
:10027000F5EFE5C521180379FE103006856F4ECDE8
:10028000AC01C1E1C9EFCF28FD210000F5FE10301F
:100290000AF129292929B56FCF18F1F120FAF5CDF6
:1002A0001100F1C9EFCDF501E3E50D280E30F6C5DB
:1002B0000E08CDAC01C1E1E30C18EAD818F17EDFDD
:1002C00020237EDF23237EDF262B2BC9237B957AF9
:1002D0009CC9318DFF21020611D1FF013B00EDB811
:1002E0003EFFED47ED563ED0D3F83E07D3F93EFA38
:1002F000D3F9ED5EDBF00FDABEFF1805FFFFFFFF5D
:10030000FF318DFFD780213903CDD40140CDBD050C
:10031000CD0700175FFE11F28704FE1020060E3D88
:10032000CDAB0117D770017002C50E0221A70216CE
:100330000019195E2356EBE9C902DC02ED02B40490
:100340001D0674061407CB04B5FFDE047001FF041C
:100350003E0372039703AE03660421EDFFCD2D0229
:10036000CDC3FF30F521F1FFCD2D0218F30CCD13D5
:10037000022021EDFFC17123C171C12371C90E0497
:10038000CD13022021F0FFC1712318E9CD94031889
:100390003FFBEFFDDFBBAFBD9F7B6F7D5F3B2F3D25
:1003A0001F7EBEFE3EF7B777373F065B4F666D7D1B
:1003B000077F6F777C395E79710500606024322990
:1003C0003231323132323132313239777F3FFFF1DF
:1003D0002AA9FFD770E7437EDF20CF202130AD214F
:1003E000D3F422A2FF21460522D0FF21EAFF7EBEE0
:1003F00028FD3E87D3F83E0AD3F800C3AB04CDAE48
:100400000318CDCDF40140E7437EDF20CF38162B13
:1004100028F523FE10D04FD720CDE10179EBCDF8A0
:1004200001EB7330EA2318DF0CCD130240C1D1E198
:1004300071CD3B0230FAC9FE04302F1F781712D756
:1004400070212E041191FF06081AE6D71730064EC8
:10045000F5CDAC01F12310F41A17174F1A1F47CF2F
:10046000FE0230D31F791F1F18D457D7704ACDE032
:1004700001157A213604010C00EDB120054ECDABFB
:1004800001157A213F040E0D2323230DC8BE20F849
:10049000CD1D04CFD820D3D740042002D720CDF5DE
:1004A00001D07D1205FA1A04137C12CF18BC16FF76
:1004B000235E23461ADF2005F8131ADF221BC96DBD
:1004C0005C007600735439056B0672076D08760977
:1004D0003810730A92000B90000C8F000D8E000EE6
:1004E0008D000F910008A60009A50010A90107972B
:1004F00001059301069501F1CD0700402806CDF8CE
:100500000122A9FF38340E40CDAB01140602CDF410
:100510000140E505381120F6318DFFD780213400E8
:10052000CDD40135C3750221ABFFD1732372231AD9
:10053000773EF712237804B728F0D780AF32B3FFA5
:10054000D3FCC399FFCF30D0318DFFD1C1F12AA5A3
:10055000FF08D922A5FFF5C5D5C37002D740CFDA71
:100560000000FE1030B2CDF80130AD22B1FFC9CD90
:10057000130240010040E1D17AB720017BEDB1E0E8
:100580007AB728047BBE20F02BD5CD76032318E75D
:100590000CCD130240C1E1D1B7E5ED52DA8704E397
:1005A000E5D5ED423811E1E5ED42300BE1D1E1E571
:1005B00009EBC103EDB8C9E15950C1C103EDB0C9A0
:1005C000F321FD0511CCFF010C00EDB83AB3FFB7E4
:1005D000C27002C1D1E1F1E5D5C5F5DDE5FDE5115A
:1005E00099FF7A32B3FF210E0039EB06062B722BEE
:1005F00073D110F9C1F92EA57323720B2EAB16021D
:100600007EA92320047EA8280623231520F2032E8A
:10061000A97123701E02234EAF77234677237E02F3
:10062000231D20F37ACDBD057AB720173AA2FFB774
:10063000CA70023E03D3F821000022A2FF213F032B
:10064000E5ED4D21FEFFCBFECD8401C3700232E704
:10065000FFDBF0E601C8C3BBFF66FFD1C1F1DDE1FE
:10066000FDE1E1F900002100C1FBC300C000000072
:100670000000001025FFFFC30008C38704C306085D
:10068000C30308F6FFC33001C38401C34605C90094
:1006900000C387043A0180FEAAC28704C30280FF18
:1006A000FFFFFFFFFFFFFFFFFFFFFFFFFFFF0CCD7F
:1006B000130240C141D1E1CD9706C5E53AB1FF4FE4
:1006C0000600040D2805CD3B0230F7D521FDE2CD13
:1006D000A206D1E1F1F5D55F1600CDA7067BDF2597
:1006E00078CDA706CDA206E740AF92CDA7061600AB
:1006F0007ECDA7062310F9AF92CDA706D12BCD3B17
:100700000230B8C1C9CD130240C141E1E5CD970621
:1007100021FDE2CDA206781600CDA706AFCDA70633
:10072000E1CDA206AF921810C50620AFCDAB0610E2
:10073000FAC1C97DCDA7067C4F825779D5C54F1E1A
:1007400009CDE706CDDC061D2818791F4F38F2CDFC
:10075000DC06791F3805CDE70618EC4FCDFE061DE7
:1007600018E21604CDDC061520FAC1D1C90614CD55
:100770000907CD020710FBC906103E1032F4FFD363
:10078000F03E09D3F3CDE106CD0907060418E306D0
:100790002418E73AB2FF3D20FDC9AF32F4FFD3F091
:1007A0003E08D3F3C90DCD130220C141C521FDE29E
:1007B000CD7907BD20FACD7907BC20F71600CD7999
:1007C000075FDF25CD790747CD79076FCD790767BB
:1007D000E740CD79072022F1F5BB20D178B7281961
:1007E0003E4832FBFFCD7907772310F9CD79073EDC
:1007F0000032FBFF37200218B4C1C2B8FF3AB3FF82
:10080000B72003D780E922A9FFC9E5D5C5CD810767
:1008100018FB0E350D280ACD0207DBF0E68028F420
:10082000C92E801E00CDD6071CCDD607FE1DD0FEDA
:1008300009D81DCDD607FE1D301BFE09D87B2F5FC2
:10084000CDD607FE1DD0FE09D87B1F7D1F6F380D4A
:100850007B2F5F18DEFE31D0FE1DD818ECE1C1D130
:10086000E14F8257B779C90600CD02070C7BB7DB91
:10087000F028012FE68028F1160304157948C84FA7
:10088000CD02077BB7DBF028012FE68020EC0C18A7
:10089000D6C30908C3ED3EC3FFFF3EC932FFFFCDFB
:1008A000070017FE10F287042124085F16001919AB
:1008B0005E2356EBE9F30F4408730B850F7B1A4256
:1008C0001DBC1DEC1D00100306FFFFFFFFFFFFFF17
:1008D000FFF51D391E318DFF3E82D3E3CDB1093EB8
:1008E00082D3E33E04D3E2CDEB09CD070017D60A4D
:1008F000DA0D0AFE05F20D0A5F1600D770014E08E8
:10090000C50E02217C0819197E23666FE98608E46A
:10091000081209A8096709CD070040DAC508CDF813
:1009200001DA0D0AE5CDF501D20D0AEBE14B42CD1E
:100930000909CD570B4D44CD320B0EFFDBE1B9C495
:10094000B808CD3B02D2A108C9E743DBE1DF20CDE7
:10095000C6FFD8C30D0A3AE6FF5F160021DA081970
:10096000195E23561B210000C3A1080008001000D7
:1009700010002000400CCD130240C1D1E1CD090987
:10098000CD570BCDFF08DBE10203CD3B0230F4C9AC
:10099000C5E3C1CD320BC5E3C1C979FEFFC0B8C004
:1009A000C30D0A0CCD130240C1D1E1CD0909CD57C9
:1009B0000BCDFF08E50A6FDBE1BDE1C4340903CDCF
:1009C0003B0230EDC9C5E3C1CD3E09C5E3C1C9F560
:1009D000C5DF20D712C1E56960C5E743C1E1CDC6D7
:1009E000FF3010C5E7437EDF20C1CDC6FF3004F1E4
:1009F000C33E09C20D0AF1C90CCD130240C1D1E1B9
:100A0000CD0909E521A209C5CDD40150C1219B0919
:100A1000E33AE6FF3C3DCA360A3DCA6E0A3DCAB01B
:100A20000A3DCAF20A3DCAF20AC30D0AC8CD3E0900
:100A3000C30D0A4073505C40FFCDC6FFDA4408C3C3
:100A40000D0AD78021E809CDD40126010000CDF49C
:100A50000140E521DE0909095E2356E1E5B7ED52C3
:100A6000E17932E6FFC80CFE05D2B109C3C109160F
:100A70002732272A73642728717377FFD7803AE6D5
:100A8000FF5F1600FE022804FE0420060E02CDE0E1
:100A9000011421DE0919197E23666FE740C9318DE3
:100AA000FFD78021230ACDD40150060ACD290A1090
:100AB000FBC34E087950505C50FF3E1932EAFF3AB2
:100AC000EAFFB7C22E0AC93E80D3E33E38D3E2CD57
:100AD000320BE3E33E39D3E2CD290A3E38D3E2E3D9
:100AE000E33E82D3E33E3AD3E2CD320BDBE1BEF507
:100AF0003E04D3E2F1C003CD3B02D2360AAFC93E79
:100B000080D3E33E04D3E2CD320B3E38D3E2E3E3BD
:100B10003E3AD3E2CD290A3E38D3E2E3E33E04D3A2
:100B2000E2E3E33E82D3E33E06D3E2CD320BDBE1E8
:100B3000BEF53E04D3E2F1C003CD3B02D26E0AAF54
:100B4000C93E80D3E33E04D3E2CD320B3E28D3E24C
:100B5000E3E33E2AD3E2CD290A3E28D3E2E3E33E93
:100B600004D3E2E3E33E82D3E33E06D3E2CD320B8D
:100B7000DBE1BEF53E04D3E2F1C003CD3B02D2B0CF
:100B80000AAFC93E80D3E33E05D3E2CD320B3E2906
:100B9000D3E2E3E33E28D3E2CD290A3E29D3E2E3C0
:100BA000E33E05D3E23E82D3E33E2BD3E2CD320BCC
:100BB000DBE1BEF53E05D3E2F1C003CD3B02D2F24C
:100BC0000AAFC9C53E0DD3E33E0CD3E379D3E07839
:100BD000E63F470405CA520B3E0FD3E33E0ED3E374
:100BE000C3430B7ED3E1C1C93AE6FF3C3D28103D2B
:100BF00028083D28053E23D3E2C93E06D3E2C93E7C
:100C000022D3E2C9CDAC0C2110FECDA00CCDE20C5C
:100C1000F53A11FEB720043C3211FEF138E6CDC69C
:100C2000FFCDB70C38DE28F6FE112804FE0A30EEA0
:100C3000211AFECDA00CCDE50CF53A1BFEB7200421
:100C40003C321BFEF130082110FECD410D18CFCDF6
:100C50008A0D2110FECDF50B38242110FE7EFE09F1
:100C60003805CD7B0C18F32110FECD410D3AF7FF6E
:100C7000F68032F7FFCDC6FFFE1020F9188621104E
:100C8000FECD410D18987EFE09D8237EFE023FD08E
:100C90002BE5CD7B0CE118EE237EFE02D8237EE609
:100CA0000FC02B2BE5CD7B0CE118ED3A11FEB720E0
:100CB000013C473A1BFEB720013CB8C838099047B1
:100CC0002110FECD410CC94F789147211AFECD412C
:100CD0000CC9237EB72B200323342B0E00C5E5CD92
:100CE000560CE1C110ECC979070707074F34237E82
:100CF000B7280134160823060479174F7E1777109A
:100D0000F87917171717174F1520EBC935237EB73A
:100D10002801350108000916080E000604791F4F46
:100D20007E1F7710F8791F1F1F1F1F4F2B1520EBF9
:100D3000C9F5E5060AAF772310FCE1F1C9F5D780C4
:100D40000E00CDE00180F1C9FE0F281BFE0E281712
:100D5000FE0C2813FE0D280FFE10372815FE122852
:100D600006B7C00E000CC9F53A39FE3238FEF13232
:100D700039FEC9CDC6FFCDB70CD820057EB7C01847
:100D8000F2FE1120207EB7200934D7800E00CDE07E
:100D90000110237EB72B20DB23342B3AF7FFF6809C
:100DA00032F7FF18CEB74F200E7EB7200AD7800E3D
:100DB00000CDE0011018BC7EFE0830B779FE0A3085
:100DC000B27EB72002D780CDE00180E5CD560CE1A0
:100DD00018A1E5CD070CE1D7807EB71F4F0600F5BF
:100DE000092341F1300D237EE60F4FCDE001802B2A
:100DF0000405C87E0F0F0F0FE60F4FCDE001807E78
:100E0000E60F4FCDE001802B10E97EFE02D821F7DE
:100E1000FF3D4F0600097EF68077C9CDA30D3A3815
:100E2000FEFE0F281CFE0E2833FE0CCA090EFE0D16
:100E3000CA720EC92110FECD070C211AFECD070C77
:100E4000C9CD1A0C2112FE111CFEB706081A8E27F6
:100E500077231310F8CDE80DCDA30DC9CD1A0C21C1
:100E600012FE111CFEB706081A4F7E99277723132E
:100E700010F6CDE80DCDA30DC906102119FE7EE6B2
:100E8000F0200A057EE60F20042B10F2042110FE4C
:100E9000702378BED07E2B77C9C9CD160ECD330E08
:100EA000CD420ECDE80DC92110FE1124FE010A002D
:100EB000EDB0211AFE112EFE010A00EDB02110FE48
:100EC000CDA00CC93A25FE3D473A2FFE3D803C326D
:100ED00011FEC9212EFE7EB7C8CD7B0C47B7280571
:100EE000CD5E0E10FB2124FE0E00CD560C18E4C57D
:100EF0002112FE1126FEB706081A8E27772313103B
:100F0000F8C1C9CD210FCD160ECD810ECDA30DC3D5
:100F1000E80D3A2EFE4F3A24FEB9060938079147EC
:100F2000B720160609CDE10ECDD60E2110FE2334D2
:100F3000CDE10ECDD60E10F8C9CDBE0E0E000CCDF3
:100F4000E10ECDCD0E10F73E0991D847C3940EC5E2
:100F5000212EFE0E00C5CD560CC110F4C1C9C5210D
:100F60002EFECD7B0CC1C9C52124FE0E00CD560C32
:100F7000C1C9C5060004CD0B0F30FA05CDF70E210F
:100F800010FE48CD560CC1C9C52126FE1130FE0603
:100F900008B71A8E2777231310F8C1C9C52126FE7A
:100FA0001130FEB706081A4F7E992777231310F6E3
:100FB000C1C9CDA30D3A11FE3D473211FE3A1BFEC9
:100FC0003D321BFEB8380147C52110FECD4C0FC184
:100FD000211AFECD4C0FCDE80DCD640FC90405C814
:100FE0002335342804352B18F52B0E00E5C5CD56D6
:100FF0000CC1E118E906102123FE7EE6F0200C0565
:101000007EE60F20062B10F2C37F0F211AFE70C957
:10101000F1F1F1C3D60BCDF40140D00600E7437ED9
:10102000DF20CF381F20087DE60F28EF2B18F8FEB1
:1010300010D04FD720CDE10179EBCDF801EB30E7AF
:10104000737B18017E8047237DE60F20D0E5D770A3
:1010500021E60FCDD40143CDF401207895E128BBE2
:10106000E521EB0FCDD401702160EA2B7DB420FB8C
:10107000D770E12BC3960F6D1C5477FF0000795099
:10108000505C50FF3A0140FE55CA2040C38704FF20
:10109000FF318DFFF3CD741928193E80D3E306315B
:1010A000213AFEAF772310FCCD4613CDA8193E326E
:1010B000324BFE21861022C7FF21911022C4FF214E
:1010C0009C1022CDFF3EC332CCFFCDA014318DFF4A
:1010D000D780216C13CDD40140CD0700175FFE10DF
:1010E000D25913D770213C10E50E0221661016006C
:1010F00019195E2356EBE9EE10DC0251125E1276EE
:10110000127113A812E91213188C1346146C148868
:1011100014B914F214FFFFCD8401F5FE10CA3C107F
:10112000F1C9ED57E23001F3CD3001FBC9213AFEA0
:101130007EB728013523352335C0360523EB214101
:10114000FE7EB73D2777237EDE002777237EDE00F5
:101150002777EB7EB73C2777C0237EB73C2777FE07
:1011600060D8AF77233A45FEB73D273245FE7EC6AD
:10117000012777FE60D8AF77237E3C2777C9F10E31
:1011800040CDAB0112CDAB0115CDC3FF381A21ED17
:10119000FFCD2112CDBA172001FBCDCF11CD99156E
:1011A000CD0116CD141618E1FE04300821F1FFCD53
:1011B000211218D5FE0A3013213F123AF0FF2FE614
:1011C000075F16001919CD171218BEFE10C830B9E6
:1011D000D60A5F160021F810E521521119197E2355
:1011E000666FE95E1176118A11ED109011B7112129
:1011F00046FECD2512214D12CD1712214EFECB5E9B
:10120000C821F7FFCBFEC92144FECD2512214F1284
:10121000CD1712214EFECB56C818E60E00F1C3F0D2
:10122000102158FECD21123A4EFECB47C8ED5B5936
:10123000FE2AEEFFB7ED5220C83A58FEB7CA701228
:10124000CDEC11ED5359FEC9215BFECD2112ED57B6
:10125000E2C71121F8FFCBFE3A4EFECB4FC818A1D2
:101260003A4EFECB47C8ED5BEEFF2A59FEB7ED5272
:10127000C03AE8FFB7C0217F3F22E8FFC9FE6038CF
:1012800008D660F57A3C2757F183273009F5B77AFD
:101290003C2757F1C6405FFE603807D6605F7A3C56
:1012A00027577AD624D857C911F8FF7E12231B7E00
:1012B00012C97EDF20237EDF23237EE6F0200CAFE1
:1012C00032FEFF4ECDE001162B2BC97EDF2618F82B
:1012D00073541C316D50391C73316D5C5479543129
:1012E0003137CDED0221F0FF7E2F3CE60777C9CDE7
:1012F0009112300D2259FE793258FE214EFECBC696
:10130000C9214EFECB86C9CD91123010CDA01479E3
:10131000325BFE225CFE214EFECBCEC9214EFECBBF
:101320008EC90E03CDB41920C1D1E1656B79FE9948
:10133000D07DFE60D07CFE24C9CDCE1910F57DE6AF
:101340000FFE02D25913B7201CF1DA59130E02CD49
:10135000130240C1E179E60FFE02D25913226BFE5F
:101360000DC0C3AE19F1CD7419C259132BE7443E19
:10137000FF23BE20FCE740C3C6FFCDF40110F57D7E
:10138000E60FFE023064B72039F1384B0E02CD1360
:101390000240D1E1CD4E13ED535EFE2260FEAF322E
:1013A0004AFE21301622D0FF3EFFD3F83E60D3F82C
:1013B0002E602608224CFE3E013262FED3E3D3FCAF
:1013C000FBC9F130252A60FEED5B5EFECD4E13E7D2
:1013D00044EBE740C3C6FF216B1E11CF1F18B57E3B
:1013E000FEAA20061AFEAA2001C9318DFFD780214E
:1013F0006813CDD40135C34110795050FF39777F40
:101400007FFFCDCE19107DE60F4FCDEF1530F341A4
:1014100004DBE21F10FD3F7917D3E318E50DCDB4CF
:101420001910E17DE60FFE0230C0B72027213DFEF6
:10143000AF7723772377213DFECD2112CDC3FF382F
:10144000F5CD2112CDC3FF30F8FE10C8CDC6FFB7D1
:1014500028DB18E2D760CD3D14CDCE1940545D068F
:1014600000380EE74221F9FFCBFECDCE192030E443
:1014700045D760CD3414783C3241FEED5342FE2A0C
:1014800042FEE740CDC3FFFE10C8FE1128C67DB462
:1014900020ED3A41FEB720E7CD3D14626BE74221D3
:1014A000F9FFCBFE78DF20CDC6FFFE1128A6B720BE
:1014B000C0CD3414CDC6FFB720FACD3D14CDC6FF44
:1014C000B728EE18E53E0BD3E33E08D3E3C93E0A46
:1014D000D3E33E09D3E3C9CD5A1430092246FE2195
:1014E0004EFECBDEC9214EFECB9EC90E02CDB419F5
:1014F00020D1E1656B7CFE13D07DFE32C9CDB419DD
:1015000020C1E1CDEF15300B65692244FE214EFE6E
:10151000CBD6C9214EFECB96C90DCD130220C17981
:10152000FE03301CFE02281CB72006F33E01D3E365
:10153000C9E5D52A60FEED5B5EFECD0313D1E1C99E
:10154000324BFEC93E80D3E318E2CD130220C1E145
:10155000612248FECDA0143EFF324AFE0C280B212A
:101560004CFE7EDF20CD201518F5110000214CFE29
:10157000CD20151ACD7515214EFECB6E28EFCBAEC2
:101580001318EACD130240D1ED5369FEE12267FE44
:101590004D2100002265FE7BB2200479D3E0C921F1
:1015A0004CFECD2015F32A63FE2B7ECD7515FB185E
:1015B000EE3A3AFEB7C03A4BFE323AFECDC3FFFEDA
:1015C00010CA3C10FE06D0E5D52147155F1600195C
:1015D000197E23666FD1E3C9531559155F1565153B
:1015E0006B157015237E3DC835C9237E3CC834C9B0
:1015F000214EFECBA6C9214EFECBE6C97E3DC835A5
:10160000C97E3CC834C9E5C5060821F7FF4F3A4EEC
:10161000FECB67792011D3E01F300836632310F822
:10162000C1E1C9360018F62F18ECCD7419C02BCDC6
:101630008419D8CDBA1520F6233EFFBEC83DBE287A
:10164000EDCDCC1520F2CDD81518ED23ED5BF1FFD3
:101650007E23B72805BBC07EBAC97EB7C923ED5B20
:10166000EEFF7E23BBC07EBAC92B2B4ECDEF1523D8
:1016700023D079E60F4779171717177817D3E3C9DF
:1016800079E6F02806FE102802B7C979E60FC8FEF1
:1016900006C9214EFECB56C83A45FEB7C0CB963A96
:1016A00044FE4F18CD214EFECB5EC8ED5BF1FF2A04
:1016B00046FEB7ED52C0214EFECB9E0E49F1C3F05F
:1016C00010F5E5D5CDD017C52A60FE7EFEAA2033E1
:1016D0002A5EFE7EFEAA202BCDBA17200521781A9D
:1016E00018132A5EFE11EFFF231ABE201F231B1AB8
:1016F000BE132320172255FE3E013257FE21A516A8
:1017000022D0FFC1D1E1F1D3FCFBED4DCD8C1630E1
:10171000D73A4AFE3CC272162148FE18D87EFEAA6D
:10172000C8FEFF37C8237DB420F3F3C359137EFEF0
:10173000AAC8FEFF37C9F5E5D5C52A55FECD9D16C9
:10174000282D46EB2A60FE237EB8232807CD8C1671
:10175000381D18F37E324CFE23224FFE2251FEEB41
:10176000237E3253FE232255FE211617C36F163EE9
:1017700001D3E32100202253FEAF324AFE21F216AC
:10178000C36F16F5E5D5C52A53FE2B2253FE7DB453
:10179000280FCDC3FF3004FE0E2806CDBA17C27243
:1017A00016213016C36F16F5E5D5C5CDC3FF30231E
:1017B000FE0F201FCDBA1720B63A5BFEB7280DEDFD
:1017C0005B5CFECDEC11ED535CFE18A3214EFECB0D
:1017D0008E189C2157FE35C27216342A4FFECD9DBD
:1017E0001620183A53FE3D3253FE28092A51FE2294
:1017F0004FFEC3721621A516C36F16CD9D172A4F33
:10180000FE235E23224FFE211D1A7EFEFF2819BBF8
:10181000232320F62B3EFFD3F83A4CFED3F83E00AC
:10182000D3E37E214EFECBEE3257FEC372165E210D
:10183000341A7E2323FEFF2803BB20F62B3E7FD3E2
:10184000FA7ED3E1B720013CD3FAC93A4EFEE60254
:10185000280D2AEEFFED5B5CFE7DABC07CAAC93D86
:10186000C92162FE35C03A4DFE772A65FE7DB4205F
:101870000F2A67FE2263FE2A69FE2265FE7DB4C838
:10188000ED5B63FE3A4EFECB671A2015D3E013EDF5
:101890005363FE2B2265FE3EFFD3F83A4CFED3F88D
:1018A000C92F18E8CD74192803CDA819CD741930A3
:1018B0002A0E48CD9719CD5A14EB3805CD071A18C2
:1018C000F00EFE2A6BFECD8419382723237ABE380A
:1018D0001B20F32B7BBE381420EC2BCD4B19CD6590
:1018E00019FE0E2012CD841938C218EF2B3EFEBE11
:1018F00020FACD251918E4FE0D28B6FE0C2017E5B8
:10190000CD8419D1D57E121323FEFF20F8E17EFE8F
:10191000FFCA131818C5E5232323CD8F19C2E21877
:101920000E5CCD9719D717CD6519FE0F28F9FE0C5F
:1019300028F5FE0DE120A4E50E5CCD9719CD91129E
:10194000EB3005CDEF153805CD071A18EBE1E5238F
:101950002323CD8F19285A23237ABE3852204D2BAA
:101960007BBE384C20452B7EE60F4779E60FB83812
:10197000402037CD5D19CD6519FE0F200C232323A0
:10198000CD8F1920EEE1C38518FE0C2011545D1394
:101990001313E51A772313FEFF20F8E118E2FE0D7A
:1019A0002004E1C3A618E1C34A1823232318A32B5C
:1019B0002BCD251918BDD5C5E53EFFBE2320FC2B38
:1019C000EBE1E57B954F7A9C47036B62131313EDB4
:1019D000B8E1C1D171237323722B2BC90E48CD9767
:1019E00019D71723237EDF232B7EDF202BC90E5C24
:1019F000CD9719C32112CDC6FFFE0C38F9FE10CACF
:101A00003C1030F2C92A6BFE7EFEAAC0233EFFBE08
:101A100037C83DBEC9237EFEFEC8FEFF37C818F595
:101A20003EFFBE37C83DBEC9D780CDAB0112CDAB9E
:101A300001150E0DCDE00117C92180FE226BFE3687
:101A4000AA2336FFC9EFCDCF19E3E50D280E30F6F6
:101A5000C50E08CDAC01C1E1E30C18EAD818F1EFCE
:101A6000CDF21928FB210000F5FE0A300CF12929DE
:101A70002929B56FCDF21918EFF120F8F5CD110035
:101A8000F1C9EFC5CDC6FFF54F2006CDE101F1C18B
:101A9000C9FE0A38F6F118EC21171ACDD4015021ED
:101AA00060EA2B7DB420FBC97950505C50FF640183
:101AB000320216040808041002200140360C3818BF
:101AC00034303160FF0000A0FF0AF1B0E3C1D71C41
:101AD000CBD1C01DB5E1ABF1A11F9891901987A1A1
:101AE000801A78B172C26B2C65D25F2D5AE255F222
:101AF000502F4C92472943A23F2A3CB238C3353C71
:101B000032D32F3D2DE32AFFFF010FFFD7800E4078
:101B1000CDAB01173E92D3E33E01D3E3214E1C220D
:101B2000D0FF22D6FF3EFA320AFE3E01320BFECD36
:101B3000C6FFF5D7800E00CDE00110F1FE0430CCD9
:101B4000217B1AE521C31A16005F19197E23666FDF
:101B5000D3FCFBE9CB1A021DC81C291DCD261BCDC9
:101B6000411BAFD3E3DBE11730FB3E57D3F93A0B10
:101B7000FED3F9CDC3FF300DFE10C8D60C281A3D98
:101B800028243D282EDBE11738E9CD531BCD261B39
:101B9000CD951BCDDD1BC3CB1A3EFA320AFE3E0AA1
:101BA000320BFEC3CB1A3EFA320AFE3E01320BFE66
:101BB000C3CB1A3E1918F13E01D3E33E47D3FAAF27
:101BC000D3FA3EC7D3FBAFD3FBE52100002208FECA
:101BD000E1C93E57D3F83A0AFED3F83E57D3F93E4F
:101BE00001D3F9C9DBE0E63F6FDBFACD901B67DB81
:101BF000FBCD901B5F3A08FE577C0F0FE6C0B56F18
:101C00007C0F0FE63F677B0F0FE6C0B4677B0F0FBB
:101C1000E63F5F7A0F0FE6C0B35F7A0F0FE63F57DC
:101C2000C9B7C8ED44C9CDC21B06FFCDCF1B04DC2C
:101C3000A71B78FE1B38F4C978D95F1600215C1CFD
:101C400019191919110CFE06041A8E2712132310E4
:101C5000F8D9C9E5210CFE0604AF772310FCE1C9D1
:101C60007AB71F577B1F5F7C1F677D1F6FC93A0ABA
:101C7000FEFE19CCF71BCD111C3A0BFEFE0AC03A32
:101C8000F8FFF68032F8FFC92A0CFEAF0604298F50
:101C900010FC220CFE2A0EFE29292929B56F220EDE
:101CA000FEC90E00060411FFFF210FFE1B7E1F1F41
:101CB0001F1FCD371C121B7ECD371C122B10ED239E
:101CC0007E0E01CD371C12C9E5211803E60F856F82
:101CD0007EE1FE3FC44B1C0C0DC0AFC90E01C9E52F
:101CE0002A08FE232208FED3FCE1FBED4D01000093
:101CF00000020000000400000008000000160000C0
:101D000000320000006400000028010000560200BC
:101D1000001205000024100000482000009640003A
:101D20000092810000846301006827030036550695
:101D30000072101300442126008842520076850468
:101D40000152710902044319040886380816727793
:101D50001632445533648810672100002208FEAF14
:101D6000D3E3DBE11730FBCDC3FF3003FE10C8DB4C
:101D7000E11738F3CDF21C3E01D3E3CD951BCD1115
:101D80001C18D62A08FEEBDBE06FDBE1E63F67CDEF
:101D9000751BC9CD261BAFD3E3CD531BCD951BCDF2
:101DA0001B1DCDC3FF30F2FE1020E8C90E01CD137C
:101DB0001C3AFDFFF68032FDFFC9CD261BAFD3E3F1
:101DC000CDF21CCD951BCD1B1DCDC3FF30F2FE10F7
:101DD00020E8C921B31DCDD40180CDF4012455F5EF
:101DE0007ADF24F1303A4AED78DF20CDC3FF30F6B8
:101DF000FE1028DFFE1120EE4AED78CDA81D5FE72A
:101E0000447BCDA81DE740CDC3FF30ECFE1028C3B6
:101E1000FE1220E421B31DCDD401807ADF2418C640
:101E2000D7200E40CDAB0120CFFE1028A630F1CD3B
:101E3000F80130EC4AED6918E7060429292987EDF5
:101E40006A10F8C96D3908080F000000FF0E03CDB5
:101E5000130240C1D1E10ABE200703CD3B0230F698
:101E6000C9C5E7437EDF20CDC6FFC130EDC5E3E73E
:101E7000437EDF20CDC6FFE3C138E618DDCFD28731
:101E800004AF32A7FFC93E9BD3E3D7803E4032FE6A
:101E9000FFCD1C1E6FCD1C1E67CD1C1E4FCD1C1E02
:101EA00047CD1C1E77230B79B020F618D91608DB16
:101EB000E01F38FBDBE01F30FB3E5C32FEFFDBE067
:101EC0001F1F7B1F5F1520E77BC9F1D740CF110093
:101ED00004280BCDF801F5B7ED52F122A9FFDAA8DD
:101EE000040E40CDAB01140602CDF40140F5B7ED70
:101EF00052F1E505DA960420F0C38704AA0160E2F6
:101F0000082D08E2082D08E208B108D208C208A18D
:101F1000040008C108E108A108B1040008E108199B
:101F200008B108C2040008E108E2082D08E2082D03
:101F300008E208B108D208C208A1040008C108E1FB
:101F400008A108B1040008E108C208B108A1040012
:101F500004AA0260C204D208C208A1040064A10459
:101F60001A64A1089108A1081A08A13800081A04E7
:101F70009108C208A1380008F104D1089108C138BD
:101F80000001AA0360E202A108B108C208D208E277
:101F900038C208E238C208E238A108C208A108F134
:101FA00008C208A102A108D208C208B108E202A131
:101FB00008B108C208D208E238C208E238C208E212
:101FC00038A108C208A108F108C208A1340001AA7A
:101FD0000460C234B108C208D208C208B108A1081E
:101FE000C2040064C208A108C234B108C208A10832
:101FF0009108E108F10891349108A108B108A108FD
:102000009108F108E108D108E108D108C102006493
:10201000C108D108E104F104D1020001AA0569E177
:1020200004A108B108C204A104B1041904A102E189
:1020300004A108B108C204D204E202D2029104C28F
:1020400008D208E204D204C204B104A1020064A1CF
:1020500004D208E208F204D204C202B1020001FF75
:10206000AA120005010301AA16000401AA17000123
:1020700002AA180002010102AA190003010401AA20
:10208000200002010401AA21000102AA2200050188
:10209000FF00000002000000000000000005040036
:1020A0000700000000000000000000000000000029
:1020B00000010204081020408001020408102040A2
:1020C0008001020408102040800102040810204012
:1020D0008002020202020202020404040404040454
:1020E00004030303030303030301010101010101CD
:1020F000010000390036003300300000003B00389A
:10210000003500320000003A003700340031000092
:1021100016141B1911241FBECFE5D8E0DEBFCDBFBA
:1021200011E0A0E6B0E0E8E3F5E302C005900D920F
:10213000A830B107D9F722E0A8E0B1E001C01D92B4
:10214000AC37B207E1F710E1CAE8D0E104C021974B
:10215000FE010E947F1AC838D107C9F70E944D1AA4
:102160000C949A1A0C940000089590E0981721F0AE
:10217000979A97989F5FFACF0895CF93DF93D82FC0
:1021800081E00E94B510C298CFEFCABB86E38BBB3B
:1021900082E00E94B5101ABACBBB82E00E94B51053
:1021A000CABBDBBB82E00E94B5101ABACBBBC29A95
:1021B00083E00E94B51081E00E94B510C298CABBAE
:1021C00083E28BBB82E00E94B5101ABACBBBC29AE5
:1021D00083E0DF91CF910C94B5101F93CF93DF93E1
:1021E000182FD92F81E00E94B510C298CFEFCABB3B
:1021F00081E28BBB82E00E94B5101ABACBBB82E0B1
:102200000E94B510CABB1BBB83E00E94B510DBBBAC
:1022100082E00E94B5101ABACBBBC29ADF91CF916F
:102220001F910895CF93DF9360E082E00E943B17F7
:102230008DEE9FEF0E94ED1060E670E08FED91E073
:102240000E94A619C8E0D1E089910E94BD1081E0EA
:10225000CF30D807C9F7DF91CF91089560E086E1CC
:102260000E943B1786E00E94B51061E086E10E9463
:102270003B1782E00C94B510CF93DF9368E670E0D3
:1022800086E191E00E94981360E086E191E00E946F
:10229000281386E191E00E94131447E050E068E6BD
:1022A00070E086E191E00E941014C8E0D1E086E180
:1022B00091E00E940513899381E0CF30D807B9F7E8
:1022C000DF91CF910895CF93DF9386E191E00E9453
:1022D000841326E040E052EC61E070E08FED91E085
:1022E0000E94561861E086E10E94FF1660E086E1D8
:1022F0000E943B1761E080E00E94FF1660E080E0F2
:102300000E943B1762E08DE00E94FF168DE00E9464
:10231000691761E08DE00E94FF1661E08DE00E9488
:102320003B1762E081E00E94FF1661E081E00E94BD
:10233000FF1661E081E00E943B1761E082E00E94AD
:10234000FF1661E082E00E943B1760E083E00E949C
:10235000FF1662E08EE00E94FF1661E08EE00E94B0
:10236000FF1661E08EE00E943B171ABA8FEF8BBB1D
:1023700062E085E10E94FF1662E084E10E94FF16A0
:1023800062E083E10E94FF1662E082E10E94FF1694
:1023900061E08FE00E94FF1660E08FE00E943B1733
:1023A0000E942E1161E08AE00E94FF1661E08AE03F
:1023B0000E943B1761E087E10E94FF1660E087E121
:1023C0000E943B1764E670E080E090E00E94841673
:1023D00061E087E10E943B1764EF71E080E090E0EC
:1023E0000E9484168DE090E00E94851A823058F099
:1023F0008DE090E00E94851A813029F061E08DE047
:1024000090E00E948D1A8DE090E00E94851A8093E2
:102410000F016BE670E08FED91E00E94B21964E568
:1024200070E08FED91E00E94821980910F0164E7C6
:1024300070E0811102C066E770E08FED91E00E94CC
:10244000A61968E770E08FED91E00E94C4198FED46
:1024500091E00E949217181619062CF48FED91E066
:102460000E94AC17F4CF60E082E00E943B17EFE8D7
:10247000F0E085919491909315018093140180E090
:1024800090E2909313018093120110921101109227
:10249000100190E080E00E94ED106CE770E08FED9D
:1024A00091E00E94A61960911201709113014AE017
:1024B00050E08FED91E00E943A1A6AE970E08FEDEA
:1024C00091E00E94A619609110017091110140E104
:1024D00050E08FED91E00E943A1A60EB70E08FEDD2
:1024E00091E00E94A61960E08DE00E943B17D0E0C9
:1024F000C0E08091120190911301C817D90758F4D8
:10250000E0911401F0911501EC0FFD1F84910E94E0
:10251000BD102196EECF0E943C110E94121161EC79
:1025200070E08FED91E00E94C41961E08DE00E949F
:102530003B1760E086E10E943B1782B5877F82BD32
:1025400085B5816085BD85B5897F85BD85B5886088
:1025500085BD85B58F7B85BD85B5806185BD85B51C
:102560008F7D85BD80910F0183BD61E08FE00E946A
:10257000FF1668EC70E08FED91E00E94C4198FEDBA
:1025800091E00E94AE198FED91E00E94921718160B
:1025900019062CF48FED91E00E94AC17F4CF61E0A6
:1025A00070E080E090E00E94841661E086E10E9485
:1025B0003B171FBC8FB584618FBD1EBC1DBC1CBCEE
:1025C0008FE79EE39BBD8ABD88E99AE399BD88BDEC
:1025D0008EB588608EBD8EB581608EBD61E08CE069
:1025E0000E94FF1665E070E080E090E00E94841693
:1025F00060E08AE0DF91CF910C943B178091460117
:1026000090914701891B990B089590914701809102
:1026100046012FEF3FEF981748F4E92FF0E0E85B11
:10262000FE4F208130E09F5F90934701C9010895DC
:10263000E091470180914601E81730F4F0E0E85B53
:10264000FE4F808190E008958FEF9FEF08950895E9
:10265000CF93DF931F92CDB7DEB76983209122011C
:102660002223F9F020912301203258F021E030E0BC
:10267000FC013383228390E080E00F90DF91CF91C3
:10268000089580912401E82FF0E0EB5DFE4F9981E1
:1026900090838F5F809324018093230181E090E0F9
:1026A000ECCF61E0CE0101960E94D614F7CFCF9215
:1026B000DF92EF92FF920F931F93CF93DF937C01F2
:1026C000CB018A0120912201222389F0EB016B01C9
:1026D000C40ED51ECC15DD0569F06991D701ED91C9
:1026E000FC910190F081E02DC7010995F3CF642F93
:1026F0000E94D614C801DF91CF911F910F91FF90D6
:10270000EF90DF90CF90089510924701109246010C
:1027100010922401109223010C94271481E08093DD
:102720002201609345011092240110922301089523
:102730000C948E130F93062F21E04091230165E244
:1027400071E0809145010E94821410922401109240
:102750002301109222010F9108954F925F926F9280
:102760007F92AF92BF92CF92EF92FF920F931F93FF
:10277000CF93DF935C01F62ED42F28013901EE2090
:1027800019F10E948E13CE2DC43008F0C3E0C15061
:10279000B8F028E0C29FC0011124A301920104C037
:1027A00056954795379527958A95D2F7B901D50162
:1027B000ED91FC910190F081E02DC5010995E7CFE5
:1027C00060E0C5010E949A134D2FD13208F040E21B
:1027D0002C2D68E471E08F2D0E943D14109247016A
:1027E00080934601DF91CF911F910F91FF90EF9061
:1027F000CF90BF90AF907F906F905F904F90089573
:10280000CF92EF920F931F93C22EE12C00E010E0C5
:1028100098010E94AD131F910F91EF90CF900895F2
:1028200021E00C94001461E00C949A13E6E1F1E0CD
:102830001382128288EE93E0A0E0B0E08483958357
:10284000A683B78389EE90E09183808308951092E8
:10285000D50181E08093D3011092D20161E081E142
:102860000E943B1761E080E10E943B17089809989D
:1028700088E480B985E486BF0895413208F040C0FD
:102880009091D5019111FCCF91E09093D5012093C7
:10289000D3012FEF209368011092AD01240F2093F4
:1028A000AC019093D4019091D401880F892B80932F
:1028B000D4018091D2018130F1F41092D201809143
:1028C000D40183B906B603FCFACF85EC86BF8091AC
:1028D000D5018130E1F38091AD01841710F440916E
:1028E000AD01AEEAB1E0962FFB018E2F891B841754
:1028F00020F0842F089585EEE9CF8D918193F5CF57
:1029000040E0F7CF0F93413208F048C09091D501D5
:102910009111FCCF92E09093D5010093D3019FEFEA
:10292000909368011092AD014093AC01362FAEEA4E
:10293000B1E0FB019E2F931B941758F11092D40124
:102940009091D401880F892B8093D4018091D2017A
:10295000813011F51092D2018091D40183B906B66D
:1029600003FCFACF85EC86BF222321F08091D501AC
:102970008230D1F3809168018F3F91F0809168019E
:10298000803281F080916801803371F084E00F9192
:10299000089591919D93CECF85EEE5CF81E0F7CF5D
:1029A00080E0F5CF82E0F3CF83E0F1CF613298F49D
:1029B0002091D501243089F460938A01282FACE856
:1029C000B1E0FC018E2F821B861710F080E0089585
:1029D00081918D93F7CF81E0089582E0089585ED90
:1029E00086BF06B604FCFDCF1092D501089585EC94
:1029F00086BF1092D50108951F920F920FB60F92C5
:102A000011242F933F934F935F936F937F938F93F3
:102A10009F93AF93BF93EF93FF9381B1887F8036ED
:102A200009F44CC008F03FC0883209F4A4C018F57E
:102A3000803109F49AC0B8F4882309F4F2C08830D0
:102A400009F493C0FF91EF91BF91AF919F918F9146
:102A50007F916F915F914F913F912F910F900FBE9A
:102A60000F901F901895883109F485C0803251F776
:102A70008093680115C0803409F499C048F480330C
:102A8000B9F38833F9F6809368010E94F714DACF1E
:102A9000803509F481C0883509F491C0883491F6F5
:102AA0000E94EF14CFCF883909F487C030F58837FA
:102AB00029F050F4883611F0803721F683E08093B6
:102AC000D5011092690154C0883809F476C0803964
:102AD00019F0803809F0B6CF80916901803208F092
:102AE0006CC0E091690181E08E0F8093690183B130
:102AF000F0E0E659FE4F80833BC0803B39F0E0F4C4
:102B0000803A09F473C0883A09F09CCF84E080933E
:102B1000D50110928B0110928A01E091D001F091C1
:102B2000D101099580918A0181110FC081E08093C4
:102B30008A0110928C0109C0803C09F470C0883C65
:102B400009F46DC0883B09F07DCFE0918B0181E0F5
:102B50008E0F80938B01F0E0E457FE4F808183B9A4
:102B600090918B0180918A0126C08091D40183B914
:102B700085EC86BF67CF9091AD018091AC0198172D
:102B800048F5E091AD0181E08E0F8093AD01F0E05A
:102B9000E255FE4F8081EBCFE091AD0181E08E0FD9
:102BA0008093AD0183B1F0E0E255FE4F80839091B8
:102BB000AD018091AC019817D8F285E8DACFE091A9
:102BC000AD0181E08E0F8093AD0183B1F0E0E2555D
:102BD000FE4F80838091D301811162CF81E0809389
:102BE000D20184EA86BF1092D5012CCF0E94F7143F
:102BF00080916901803230F4E0916901F0E0E6599A
:102C0000FE4F10826091690170E0E091CE01F09179
:102C1000CF018AE691E009951092690113CF85EC06
:102C2000E1CF109268013CCF1F920F920FB60F9226
:102C300011242F933F938F939F93AF93BF938091D2
:102C4000D7019091D801A091D901B091DA013091CA
:102C5000D60123E0230F2D3758F50196A11DB11D94
:102C60002093D6018093D7019093D801A093D901E6
:102C7000B093DA018091DB019091DC01A091DD013C
:102C8000B091DE010196A11DB11D8093DB019093EF
:102C9000DC01A093DD01B093DE01BF91AF919F9164
:102CA0008F913F912F910F900FBE0F901F9018950D
:102CB00026E8230F0296A11DB11DD2CF3FB7F8948D
:102CC0008091DB019091DC01A091DD01B091DE01EA
:102CD00022B708B600FE05C02F3F19F00196A11DCE
:102CE000B11D3FBFBA2FA92F982F8827BC01CD0156
:102CF000620F711D811D911D42E0660F771F881FB5
:102D0000991F4A95D1F708958F929F92AF92BF92E3
:102D1000CF92DF92EF92FF926B017C010E945E16D0
:102D20004B015C01C114D104E104F104E9F00E94FB
:102D30005C1A0E945E16681979098A099B09683E27
:102D400073408105910570F321E0C21AD108E108B2
:102D5000F10888EE880E83E0981EA11CB11CC114F6
:102D6000D104E104F10429F7FF90EF90DF90CF90B8
:102D7000BF90AF909F908F900895789483B78260B2
:102D800083BF83B7816083BF83B7806483BF83B70A
:102D9000886083BF89B7816089BF1EBC8EB58260A1
:102DA0008EBD8EB581608EBD8FB581608FBD85B5BE
:102DB000846085BD85B5806485BD329A319A309A2C
:102DC000379A1AB80895843059F028F4813099F070
:102DD000823089F00895853039F0873041F00895C8
:102DE0008FB58F778FBD08958FB58F7DFBCF85B55C
:102DF0008F7D85BD089583B78F7D83BF0895CF9361
:102E0000DF9390E0FC01EF54FF4D24918F529F4DD2
:102E1000FC0184918823C9F090E0880F991FFC0180
:102E2000EB5FFE4DA591B491FC01E550FF4DC591BE
:102E3000D49161110DC09FB7F8948C912095822395
:102E40008C938881282328839FBFDF91CF91089599
:102E5000623051F49FB7F8943C91822F8095832380
:102E60008C93E8812E2BEFCF8FB7F894EC912E2B1B
:102E70002C938FBFEACF1F93CF93DF93282F30E09F
:102E8000F901EF56FF4D8491F901EF54FF4DD491B4
:102E9000F901EF52FF4DC491CC23A9F0162F8111F7
:102EA0000E94E316EC2FF0E0EE0FFF1FE550FF4D00
:102EB000A591B4918FB7F894EC91111108C0D095F9
:102EC000DE23DC938FBFDF91CF911F910895DE2B1E
:102ED000F8CFCF93DF93282F30E0F901EF56FF4D65
:102EE0008491F901EF54FF4DD491F901EF52FF4D58
:102EF000C491CC23A1F081110E94E316EC2FF0E0E5
:102F0000EE0FFF1FEF50FF4DA591B491EC91ED2313
:102F100081E090E009F480E0DF91CF91089580E0B6
:102F200090E0FACFFC01918D228D892F90E0805C9A
:102F30009F4F821B91098F7399270895FC01918DF2
:102F4000828D981731F0828DE80FF11D858D90E00C
:102F500008958FEF9FEF0895FC01918D828D981752
:102F600061F0A28DAE0FBF2FB11D5D968C91928D39
:102F70009F5F9F73928F90E008958FEF9FEF08956A
:102F800081E199E1892B49F080E090E0892B29F0DB
:102F90000E94111981110C9400000895FC01A48D68
:102FA000A80FB92FB11DA35ABF4F2C91848D90E06B
:102FB00001968F739927848FA689B7892C93A0894E
:102FC000B1898C9180648C93938D848D981306C005
:102FD0000288F389E02D80818F7D80830895CF93CF
:102FE000DF93EC01888D8823B9F0AA89BB89E88931
:102FF000F9898C9185FD03C0808186FD0DC00FB6D7
:1030000007FCF7CF8C9185FFF2CF808185FFEDCF54
:10301000CE010E94CE17E9CFDF91CF910895EF92B4
:10302000FF920F931F93CF93DF93EC0181E0888F82
:103030009B8D8C8D981316C0E889F989808185FF56
:1030400011C0EE89FF896083E889F98980818064F5
:10305000808381E090E0DF91CF911F910F91FF90ED
:10306000EF900895F62E0B8D10E00F5F1F4F0F733A
:103070001127E02E8C8D8E110CC00FB607FCFACFF5
:10308000E889F989808185FFF5CFCE010E94CE17AE
:10309000F1CFEB8DEC0FFD2FF11DE35AFF4FF082C6
:1030A0000B8FEA89FB8980818062D2CFCF92DF9239
:1030B000EF92FF921F93CF93DF93EC016A017B01A4
:1030C000122FE889F98982E08083C11481EED80645
:1030D000E104F104A1F060E079E08DE390E0A70164
:1030E00096010E945D1A21503109410951095695F6
:1030F000479537952795211580E1380798F0E8899D
:10310000F989108260E874E88EE190E0A7019601E9
:103110000E945D1A21503109410951095695479580
:1031200037952795EC85FD853083EE85FF852083D7
:10313000188E1068EC89FD891083EA89FB898081EB
:1031400080618083EA89FB89808188608083EA8945
:10315000FB89808180688083EA89FB8980818F7DFB
:103160008083DF91CF911F91FF90EF90DF90CF9000
:1031700008951F920F920FB60F9211242F938F93E1
:103180009F93EF93FF93E091EF01F091F001808125
:10319000E091F501F091F60182FD1BC090818091D4
:1031A000F8018F5F8F732091F901821741F0E09150
:1031B000F801F0E0E152FE4F958F8093F801FF9106
:1031C000EF919F918F912F910F900FBE0F901F90B5
:1031D00018958081F4CF1F920F920FB60F92112491
:1031E0002F933F934F935F936F937F938F939F930F
:1031F000AF93BF93EF93FF938FED91E00E94CE17B3
:10320000FF91EF91BF91AF919F918F917F916F91BE
:103210005F914F913F912F910F900FBE0F901F9094
:1032200018958FED91E00E94921721E0892B09F407
:1032300020E0822F0895EFEDF1E01382128288EEF4
:1032400093E0A0E0B0E084839583A683B78389EF01
:1032500090E09183808380E490E09587848729E2E1
:1032600030E0378726872BE230E0318B208B2AE253
:1032700030E0338B228B958B848B8CE290E0978BA4
:10328000868B118E128E138E148E0895AF92BF927C
:10329000CF92DF92EF92FF920F931F93CF93DF9322
:1032A0006C017B018B01040F151FEB015E01AE1851
:1032B000BF08C017D10759F06991D601ED91FC9173
:1032C0000190F081E02DC6010995892B79F7C501A0
:1032D000DF91CF911F910F91FF90EF90DF90CF90F2
:1032E000BF90AF900895FB0101900020E9F731975E
:1032F000AF01461B570BDC01ED91FC910280F3817D
:10330000E02D0994EF92FF920F931F93CF93DF93D9
:103310008C017B01D0E0C0E0F701EC0FFD1F649150
:10332000662361F0D801ED91FC910190F081E02DD0
:10333000C8010995892B11F02196EECFCE01DF91BE
:10334000CF911F910F91FF90EF9008956115710536
:1033500011F00C94731990E080E0089565E071E03D
:103360000C9473190F931F93CF93DF93EC010E947A
:1033700082198C01CE010E94AE19800F911FDF913E
:10338000CF911F910F9108950F931F93CF93DF93C8
:103390008C01D0E0C0E06115710519F00E9473192D
:1033A000EC01C8010E94AE198C0F9D1FDF91CF91D7
:1033B0001F910F9108958F929F92AF92BF92EF92BB
:1033C000FF920F931F93CF93DF93CDB7DEB7A197F3
:1033D0000FB6F894DEBF0FBECDBF7C01FA01CB0162
:1033E00019A2223008F42AE08E010F5D1F4F822EB1
:1033F000912CB12CA12CBF01A50194010E945D1A52
:10340000F901CA016A300CF5605DD8016E938D0137
:10341000232B242B252B79F790E080E0109721F0C7
:10342000BD01C7010E947319A1960FB6F894DEBFC3
:103430000FBECDBFDF91CF911F910F91FF90EF9005
:10344000BF90AF909F908F900895695CDECF21155B
:10345000310541F4DC01ED91FC910190F081E02D0A
:10346000642F09940C94DB199A01AB0170E060E0C1
:103470000C94271A0F931F93CF93DF93EC010E94B4
:10348000341A8C01CE010E94AE19800F911FDF917A
:10349000CF911F910F91089508950E94BD160E942B
:1034A0004C1A0E946311C0ECD7E10E94B41020971F
:1034B000E1F30E94C017F9CF0895A1E21A2EAA1BCA
:1034C000BB1BFD010DC0AA1FBB1FEE1FFF1FA217D4
:1034D000B307E407F50720F0A21BB30BE40BF50BD1
:1034E000661F771F881F991F1A9469F7609570955A
:1034F000809590959B01AC01BD01CF010895EE0F21
:10350000FF1F0590F491E02D0994E199FECF9FBB38
:103510008EBBE09A99278DB30895262FE199FECFAF
:103520009FBB8EBB2DBB0FB6F894E29AE19A0FBEFB
:0835300001960895F894FFCF05
:10353800557374617769616E696520637A61737523
:103548002E2E2E00340038004D487A00444542554E
:10355800473A20466C61736820426F6F74496D6109
:10356800676553697A65203D200044454255473ACE
:1035780020426F6F7453747241646472203D20005E
:1035880050726F6772616D6F77616E69652E2E2E4E
:103598000020446F6E652E00494F533A205A383048
:1035A8002069732072756E6E696E672066726F6D22
:1035B800206E6F77000000000028135713FE1205D5
:1035C8001318132713000000000F1846199217ACA0
:0835D800179E17EF170D0A0002
:107E000001C0AEC011248FE598E09EBF8DBF84B73E
:107E1000882361F0982F9A70923041F081FF02C060
:107E200097EF94BF282E80E0B6D0EAC085E08EBDE3
:107E300082E08BB988E18AB986E880BD80E189B9A2
:107E40008EE0A9D0B89A84E020E33CEF44E051E012
:107E50003DBD2CBD48BF08B602FEFDCF98B39527A7
:107E600098BBA8955F9902C0815091F78DD081345D
:107E700061F48AD0182F93D01238E9F0113811F438
:107E800088E001C083E07CD068C0823411F484E1D2
:107E900003C0853419F485E08AD05FC0853539F494
:107EA00073D0C82F71D0D82FCC0FDD1F55C08635A9
:107EB00021F484E07CD080E0E6CF843681F564D084
:107EC00063D0182F61D0D82E012F90E6E92EF12C27
:107ED0005BD0F70181937F010150D1F760D0F5E4C9
:107EE000DF1201C0FFCF40E050E063E0CE0138D0A8
:107EF0007E0180E6C82ED12CF601419151916F018F
:107F000061E0C7012DD01250F2E0EF0EF11C11110B
:107F1000F3CF40E050E065E0CE0122D01EC08437B0
:107F200071F432D031D0F82E2FD039D08E01F80133
:107F300085918F0125D0FA94F110F9CF0EC08537C5
:107F400039F42DD08EE11CD085E91AD082E09BCF88
:107F5000813511F488E01FD022D080E111D086CF86
:107F6000FC010A0167BFE895112407B600FCFDCFAC
:107F7000667029F0452B19F481E187BFE8950895D3
:107F80005D9BFECF8CB908955F9BFECF5C9901C0CD
:107F9000A8958CB1089598E191BD81BD0895F4DF55
:107FA000803219F088E0F7DFFFCF84E1E9CFCF938B
:0C7FB000C82FEADFC150E9F7CF91F1CFF4
:027FFE00000879
:0400000300007E007B
:00000001FF
